:020000040800F2
:10000000C0070020810100080F2000080D20000813
:1000100000000000000000000000000000000000E0
:100020000000000000000000000000001320000895
:10003000000000000000000011200008152000084A
:100040009301000893010008930100089301000840
:100050009301000893010008930100089301000830
:100060009301000893010008930100089301000820
:100070009301000893010008930100089301000810
:100080009301000893010008930100089301000800
:1000900093010008930100089301000893010008F0
:1000A00093010008930100089301000893010008E0
:1000B0009301000893010008B905000893010008A6
:1000C00000F002F800F04CF812A030C808382418EC
:1000D0002D18AC4201D100F043F80FCCA246AB463C
:1000E0000CA730CF2D1B083F3F197C427F1E544484
:1000F0002D090426F441641EAC4201D300F030F80F
:100100000126334200D0FB1A3343984754465D46DC
:10011000DFE70000A42A0000C42A0000103A02D33E
:1001200078C878C1FAD8520701D330C830C101D598
:1001300004680C6070470000704700000023002432
:1001400000250026103A01D378C1FBD8520700D30E
:1001500030C100D50B6070471FB51FBD10B510BD75
:1001600000F053F91146FFF7F7FF02F049FA00F0EB
:100170006BF903B4FFF7F2FF03BC00F071F9000064
:100180000748804707480047FEE7FEE7FEE7FEE72F
:10019000FEE7FEE704480549054A064B70470000A4
:1001A0001D200008C1000008C0010020C007002079
:1001B000C0030020C003002001E004C0091F04297F
:1001C000FBD28B0701D50280801CC90700D00270CA
:1001D000704700290BD0C30702D00270401C491E93
:1001E000022904D3830702D50280801C891EE3E71D
:1001F0000022EEE70022DFE77047704770470000FB
:10020000F0B5FF252D04C609C209FF2704462E407C
:100210000137CB093E4348402A402B400746002A7D
:100220006BD0002B69D0AA4267D0AB4265D00028C2
:1002300000DA32460125ED0529432C43090220024C
:10024000090AD21A4B0C7F24E31A434C000A7C445F
:10025000E35C7D242404121914145B00A218884264
:1002600001D3521C00E0400049420C465C4324117B
:100270005C43DB016415E318040A5C43C502200DEE
:100280000C4644436419250A5D432303EC0C0D46D8
:10029000654300030019EB184C42A34201D35B18DD
:1002A000401CD4052018002B07D05B00C91804D3CC
:1002B000401C002901D1400840003F2189048A42A6
:1002C00009D3002A08DC1106090F04D003214907CD
:1002D0004018C00FC007F0BD012241001206891866
:1002E0007F2252069142F6D205214907C84201D524
:1002F0009010F0BDFF20C005F0BD002F00DA32469F
:100300001648AA4207D2AB4205D21902090E17D0ED
:10031000F80FC007F0BDFF2563002D06AB42F9D8EA
:100320004900A942F6D8AB4201D1A942F2D0A94274
:1003300001D1002101E061004908D0050843F0BD6A
:100340001102090EFBD0FF200243D005F0BD0A4682
:100350000146104654E70000DC2800000000C07F82
:1003600010B501469E240002CA15A307002A02D038
:100370001843002A04DBA21A002A0CDDD04010BD6D
:100380001206120E01D140004008A21A03D4D04038
:1003900040420028F3DDFF2248001206904201D9B6
:1003A000002010BDC817C043584010BD1F22030CC9
:1003B00002D10F2200041CD0030E01D10002083A22
:1003C000030F01D10001121F830F01D18000921E83
:1003D000002801DB4000521ED205511802125118AC
:1003E0001922904004D3491C002801D14908490032
:1003F00008467047C10FC90700D04042012292074A
:100400001143D3E701218907D0E7754600F024F8AE
:10041000AE46050069465346C008C000854618B080
:1004200020B5FFF7B7FE60BCB64600260027C0C562
:10043000C0C5C0C5C0C5C0C5C0C5C0C5C0C5403D9C
:10044000490849008D46704710B50446C046C0466D
:100450002046FFF78EFE10BD0048704710000020B8
:1004600001491820ABBEFEE72600020070470000DD
:1004700070B582B0054600240194006881680322AB
:100480000A40012A05D10168C9070ED1C1680904D3
:100490000BD48168214A11420AD0A86B1021014374
:1004A000A963E86B01242043E863204602B070BDD5
:1004B000816801220A438260C0480068C04902F096
:1004C0003BFA01900198002817D00198401E019036
:1004D0000198002811D00198401E01900198002831
:1004E0000BD00198401E01900198002805D001987A
:1004F000401E019001980028E7D100F00FFF06464A
:1005000028680068C007D0D100F008FF811B286868
:100510000329F6D30168C907F3D1BEE717000080AD
:1005200080B588B017490A680020002A024605D421
:100530000A68FF2A01DDFF2200E00A6869460A70A6
:1005400011490A68002A034605D40A68FF2A01DD1A
:10055000FF2300E00B686A46537002A90875022366
:1005600006930590049003900920400102901548DD
:1005700001AB00F031FB002801D000F025F808B0F5
:1005800080BDC046740000207800002010B588B0FF
:100590000C4602A900230B7506920593049303935E
:1005A0000290084801AB224600F016FB002801D05B
:1005B00000F00AF808B010BD80B5024800F05EFBFC
:1005C00080BDC04680000020EFF3108072B6FEE7C9
:1005D000F0B583B004463420205C012802D102200B
:1005E00003B0F0BD264634360120307021688A6899
:1005F00003273A40012A05D10A68D2073DD1CA68CB
:1006000012043AD481225200A36B93439A1CA26332
:10061000CA680292CA68BA43CA600190C0078A6871
:1006200002438A6000F07AFE05462068816800294E
:1006300013D500F073FE411B20680329F6D38168AF
:100640000029F3D5A06B1021014302208143A1634F
:1006500001980021317003B0F0BD029A3A40C168A0
:100660001143C160A06B0121014302208143A163BA
:1006700000200021317003B0F0BDA16B20220A439D
:10068000A2630021317003B0F0BD0000F0B583B06B
:10069000002402943422825C012A02D1022003B099
:1006A000F0BD074634370668B268520715D4019783
:1006B0000D684B6801270097AF403E4A934214D122
:1006C000B06AB843B0622846103802282046019F1D
:1006D00008D8112D1BD03C481AE0816B20220A4318
:1006E000826301203C7003B0F0BDB26A3A43B2624B
:1006F000C06A421E072A4AD22846103802282046DD
:10070000019FEFD8112D0ED0009908060DE02D485D
:10071000102D00D12D4828490A6802400A60204661
:100720003C7003B0F0BD00998805102D00D1C805BC
:1007300021490A6802430A60102D2046D2D11F4881
:1007400000681F4902F0F8F80A214143029102981B
:1007500000282046C6D00298401E02900298002829
:1007600011D00298401E0290029800280BD00298E7
:10077000401E02900298002805D00298401E029068
:1007800002980028E7D120463C7003B0F0BD009AE3
:1007900012079042B0D072690720024089689142E6
:1007A000AAD0726982437261014070690843706126
:1007B000A2E7C04601100000082701400800002001
:1007C00040420F00FFFFBFFFFFFFFFFEFFFF7FFF65
:1007D0000068006C70470000F0B581B0012400286B
:1007E00062D006462436816B002903D0816BC9068E
:1007F0000AD555E000213174C163054600F094F834
:100800002846816BC9064BD401688A68520747D4D1
:1008100081225200836B93439A1C82638B6803226C
:100820001340012B05D10B68DB070ED1CB681B04ED
:100830000BD4CB681824A34384681C43CC60920774
:100840000B69934342681A430A61CA68344B1340E8
:10085000CB60826A521E531E9A411203037E9B0391
:10086000447EE4031C43837E5D032543C46807691B
:100870002C431443BA1E55425541AD0025433278EE
:1008800052002A43C47E012C14D1002B0FD0836B5D
:1008900020241C438463C36B01241C43C46309E00C
:1008A000816B10220A438263204601B0F0BD012310
:1008B0001B041A43C369FF24C234A34202D0046A52
:1008C00022431A43CB681343CB60C36A5C1E072CD8
:1008D00021D24C690725AC434C612B404C691C4329
:1008E0004C61C9680F4B0B40934207D10024C4638D
:1008F000816B01220A4302218A43D4E7816B1022D3
:100900000A4302218A438263C16B01242143C163EC
:10091000204601B0F0BD01242407A342D9D0E0E76E
:100920001902FEFFE7FF3F8310B586B00021059155
:1009300004910391029101910068114A904201D003
:1009400006B010BD0F484268012301935C022243A8
:100950004260426822400092009A5A04036813439E
:10096000036000681040009003910320029009206A
:10097000C006009901A900F0F5FB06B010BDC04605
:100980000024014014100240F0B581B00D46044629
:100990004069082801D1082704E02068C068C00722
:1009A00064D10C2700F0BAFC06462168086838427A
:1009B0001CD001204202A36B1343A363CA68120533
:1009C000920F66D1A27E002A63D10A68120760D511
:1009D0008A68520754D4224638324B680C25AB4300
:1009E0004B60FF2502351368AB4350E0681C39D0DB
:1009F000002D1BD10868384221D008683842D8D170
:100A0000086838421BD008683842D2D1086838429A
:100A100015D008683842CCD1086838420FD0086831
:100A20003842E7D0C5E708683842C2D100F076FC0A
:100A3000801B2168A842F6D908683842F3D13420D7
:100A400000212154A06B04210143A163032001B0C4
:100A5000F0BD08683842ACD108683842A9D10868AE
:100A60003842A6D108683842F3D0A2E734200021EA
:100A70002154A06B20210143A163012001B0F0BDEE
:100A8000A26B20231343A36322463C32E36B034350
:100A90001360227E0020002A01D001B0F0BD0C229C
:100AA0000A6001B0F0BD000070B501688A680221DB
:100AB000520713D43422825C012A0FD00546343504
:100AC00001212970427E012A0AD004460E46FFF712
:100AD000CFFC024631462046002A01D0084670BDB0
:100AE000816B094A0A4001210902511881630021E2
:100AF000C16300681C2202602970826804231343CA
:100B00008360084670BDC046FEF0FFFFF0B581B0BF
:100B100004463420205C012802D1022001B0F0BD3F
:100B2000264634360127377020688168490711D47A
:100B3000826803210A40012A05D10268D20724D124
:100B4000C268120421D4FF200230A16B81433834E3
:100B500000203BE08168490706D58168890703D4F6
:100B6000816810220A43826000F0D8FB05462068A5
:100B700081684907DCD500F0D1FB411B20680329BF
:100B8000F6D381684907F3D519E08268052313403D
:100B9000012B14D18268022313438360016000F0AB
:100BA000BDFB054620688068C007CCD000F0B6FBCE
:100BB000411B20680329F6D38168C907F3D0A06BD5
:100BC00010210143A163E16B3C34384600223270AE
:100BD0003943216001B0F0BDF0B52024045D661EEC
:100BE0000568AC68012E10D8E600760F10D0A00181
:100BF000800F0124264686401E608E68002E0BD092
:100C0000CF684B68DB003B4309E001218C0401E025
:100C100001214C0524302BE0CE680B685B05334383
:100C20000326F601AD1900012B5028180B6943600B
:100C3000097D012905D1011D01231B020D681D43FA
:100C40000D60D179090693791B04591853791B0259
:100C5000C9181379C918C160D178090693781B04A3
:100C6000591853781B02C91812788918816000211D
:100C70000268224302600846F0BD7047F0B58BB0B1
:100C8000069000684669416809918468C5680169F1
:100C90000791012779020191F90302913904059125
:100CA0007904039181690091F10703D10020089034
:100CB000069C4DE000210891E1070ED08760A00757
:100CC00008D4600705991DD4200720D4069800F0A9
:100CD00031FA02E0069800F02EFA0599E0051ED5DB
:100CE0003A02069801688A6001990C4207D16005B2
:100CF0000BD420050ED4069800F01EFA0EE000F08A
:100D00001CFA0BE0F8020890E8E7780303E03803E8
:100D10000890E3E7B80308990918089105990C426F
:100D200001D1069C14E0069A106881600398044281
:100D30000AD1600300D5E6E0200300D5E7E0069C79
:100D4000204600F0FBF903E01046144600F0F7F9E6
:100D500010232846184041424141082230460A9259
:100D60001040424242410A4305D12068C3600898BE
:100D70000199084308900A98054068426841710744
:100D8000394606D40029089D049307D0B0070ED435
:100D900015E001460029089D0493F7D120680A99BF
:100DA000C160204600F090F9049BB00707D5206889
:100DB000C068800703D0204600F087F9049B07999C
:100DC0001940484248417106394600D5014600297C
:100DD00004D1206803610120800205430A98079925
:100DE000014048424841B106394604D4002905D0A3
:100DF000F0060CD413E001460029F9D120680A99C5
:100E00000161204600F062F9049BF00607D52068D6
:100E10000069800703D0204600F059F9049B099926
:100E200019404842484103990E42394600D00146D4
:100E3000002904D120684360204600F049F909994F
:100E40000A9801404842484105990E4239460ED160
:100E500000290FD00298064215D1002D05D0606AF6
:100E6000284360622046FFF708FF0BB0F0BD014643
:100E70000029EFD120680A994160204600F060F90E
:100E800002980642E9D0099840074FD50420009AFD
:100E9000099002405142514172053A4600D50A4636
:100EA00028460223009C1C4061426141019C26426D
:100EB0003C4600D00C46390235460D402D0A009FB5
:100EC0003D4028430546002C05D0069C002A06D04C
:100ED000300508D42AE01D43069C002AF8D1099861
:100EE0000543300522D5702007401FD0103F3A0936
:100EF000052A17D87A44127952009744020D0F0B35
:100F000011120A990DE0089802990843CFE6089853
:100F10000843CCE6402104E0049902E0202100E0EF
:100F200080210D4321688A6982438A6120680421F7
:100F30004160002D93D198E7F0B581B000281DD015
:100F4000044620200090205C002802D1204600F0BA
:100F50007DF8274620372068016801252943016074
:100F600000F0DCF9064620684168C9070AD100F0A4
:100F7000D5F9801B0B28F6D3012513E0012528465F
:100F800001B0F0BD016802229143016000F0C6F992
:100F900006462068416889070DD500F0BFF9801B1F
:100FA0000B28F6D36804616A01436162052038703A
:100FB000284601B0F0BD217E491E4A424A41D10176
:100FC000026880239A4351180160617E491E4A429B
:100FD0004A419101026840239A4351180160A17E61
:100FE000491E4A424A4151010268009B9A435118E6
:100FF0000160E17E491E4A1E9141090102681023E9
:101000009A4351180160217F491E4A424A41D1004A
:10101000026808239A4351180160617F491E4A42C1
:101020004A419100026804239A4351180160261D29
:101030006ECE13432B433343491E1943C161002530
:10104000656201203870284601B0F0BDB0B586B0A9
:1010500000240594049403940294019400681849B0
:10106000884201D006B0B0BD01204106154A936800
:101070000B43936093680B40009300994004116800
:101080000143116011680140009104200590039410
:101090000220029003200490C002019000980920D1
:1010A000C00601A900F05EF81E252846214622460A
:1010B00000F092F9284600F083F906B0B0BDC046B2
:1010C000006400401410024070477047704770473A
:1010D0007047F0B581B004462020205C01281ED165
:1010E000264620360220307020680168012217460B
:1010F0009143016000F012F9054620684068C0077E
:1011000014D000F00BF9401B0B28F6D338467904B5
:10111000626A0A4362620521317001B0F0BD0120AC
:10112000C104626A0A43626201B0F0BD00206062DD
:1011300001B0F0BD70477047704770477047704707
:1011400070470000B0B5044600F0E8F80546601CA2
:1011500002D08F480078241800F0E0F8401BA0422D
:10116000FAD3B0BDF0B58BB006900C68002C00D15E
:10117000BDE06048069A824201D0052000E00420CC
:101180001723DB06069AD2180A23DA410192042AB1
:1011900000D3019006982030009000263546334653
:1011A000099122460BE03C43089E14605B1C0A68D0
:1011B0001046D840361DAD1C002800D197E0012014
:1011C00007469F403A40F1D0049008960320044619
:1011D000AC400295E54349680E460640741E012C5A
:1011E00005920795039110D8069A90682840099CAB
:1011F000E468029DAC4004439460C806C00F984068
:101200005468BC430443546006E0032E029D03D19E
:101210000646059F039C1FE0069AD0680799084080
:1012200009998C68AC400443D460022E059F039C4E
:1012300012D11C20089908400F218140DC08A4002D
:10124000009A16598E43099F3969814031431151E3
:101250007C68059F03262640AE4006990868079AD9
:10126000104030430860A003800F0999089E049A3B
:101270009CD05249086810430860086810400A90E2
:101280000C2030400F21814003241E46A6430A9CB7
:101290001A4AB4588C43019981402143B1500999AD
:1012A000154A96684868C4020FD53E439660D668D2
:1012B00084020FD4BE43D660566884030FD4BE4365
:1012C00056601468C00310D56DE7BE439660D668BB
:1012D0008402EFD53E43D66056688403EFD53E4383
:1012E00056601468C00300D55DE7BC435CE70BB0F3
:1012F000F0BDC04600100048000401400800014055
:1013000000690840411E88417047002A02D0182217
:1013100081507047282281507047000005480068BE
:101320007047C0461A48007802490A6810180860D9
:101330007047C046B801002010B5DD480168102292
:101340000A4302600024204600F004F800F022F86E
:10135000204610BD70B504467D20C0000C4E31788B
:1013600001F0EAFA0146DA48006801F0E5FA00F017
:101370002DFC0125032C08D8002806D10025E843C0
:1013800021462A4600F028F87460284670BDC04601
:101390000000002082B00948016801221143016069
:1013A0000168114001910199110742680A434260A6
:1013B000406808400090009802B070471810024042
:1013C000002805D41F210840012181400148016007
:1013D0007047C04600E100E0002805D40322034620
:1013E00093430A4A9A1803E00C220240064BD21893
:1013F0008007C00E8901C9B28140FF238340106875
:10140000984308431060704714ED00E000E400E0EA
:10141000F0B587B004468078C0074C4F4FD001200C
:10142000059001073A1F10680840049006D1106823
:1014300008431060106808400690069802920391D5
:10144000434F3868C00512D4059806023868304307
:101450003860FFF763FF05463868304207D1FFF771
:101460005DFF401B6428F7D9032007B0F0BD0320BF
:1014700001900002354F3968014012D06268024085
:1014800091420ED00598000439683A6802433A60E8
:101490003A6882433A6008462E4A10403860C807CE
:1014A00045D138682B490840616801433960049888
:1014B000002804D1029A10680399884310602168BB
:1014C000C8070AD1880710D4880617D488031DD40A
:1014D0000020490523D407B0F0BD386903229043AA
:1014E000A26802433A618807EED5032000043A69F6
:1014F0008243E068104338618806E7D538691022D6
:101500009043226902433A618803E1D53869802219
:101510009043A26902433A6100204905DBD539694D
:101520004022914362690A433A6107B0F0BDFFF778
:10153000F5FE05465F4E38688007B2D4FFF7EEFE31
:10154000401BB042F7D9019807B0F0BD201002400F
:1015500000700040FFFCFFFFF0B581B0002842D0D2
:101560000D460446524B186801210840854208D9AF
:101570001A68012082432A431A601A680240AA426C
:1015800051D120688207674E0CD5420704D5072247
:1015900012023368134333603268F0239A43A3681E
:1015A00013433360C00721D1414A11680120014033
:1015B0008D4205D21168814311601168C90732D18B
:1015C00021784907574F06D5072109023A688A430F
:1015D000E168114339603B681907890F524A0229B3
:1015E00012D2144655E0012001B0F0BD6268032A12
:1015F00014D0022A4B4B0BD0181F012A15D10068BA
:10160000800308460FD514E003292CD1474C40E055
:10161000181F00688001084605D50AE0414B186B89
:101620008003084605D401B0F0BD00688007084675
:10163000F9D5186803210091884310431860FFF71B
:101640006DFE06461B4F374800680C21014060685C
:1016500080008142A8D0FFF761FE801BB842F2D91A
:10166000009801B0F0BD0321CD0399022B40090F72
:101670002F4C645CB96A0F260E402E49895DAB423F
:1016800003D000048342104600E0284801F054F9DA
:10169000444338680006000F0749085CC4400C4802
:1016A000046000242046FFF755FE204601B0F0BD3F
:1016B00000200240881300006E2B000804480068D8
:1016C000184909684905490F024A515CC8407047EA
:1016D000080000207E2B0008B0B512490A681007E8
:1016E000830F1148022B02D3032B01D10F48B0BD49
:1016F0000323DB0394021A40240F0D4D2C5D896AED
:101700000F250D400B49495D9A4203D001231B046C
:101710009A4200E0054801F00FF90146204648438F
:10172000B0BDC0460410024000127A00006CDC021A
:10173000862B0008962B0008F0B587B004460120E0
:10174000002C00D13CE204902078C007F64E0594AE
:101750000CD071680C200140042900D08FE0306863
:10176000800303D56068002800D131E1207880072C
:1017700021D570680007800F0ED070680C210140E1
:10178000082900D098E00320C003716801400120BF
:10179000C003814200D08FE030688007059C03D5EC
:1017A000E068012800D013E13068F82188432169FE
:1017B000C90001433160059C2078000724D42078BB
:1017C000400736D42078C00600D4CEE0706B05996F
:1017D00049694A1D00D1BDE0012900D03EE1042144
:1017E00008437063706B012101437163FFF796FD3D
:1017F0000546706B800700D5AFE0FFF78FFD411BFA
:1018000003200229F5D9DBE1706AE16900297ED065
:10181000012108437062FFF781FD0546706A800769
:10182000CDD4FFF77BFD401B0228F7D9032007B07A
:10183000F0BD012003900107F0690840029006D135
:10184000F0690843F061F06908400690069801913C
:10185000DC4F3868C00546D403980402386820433A
:101860003860FFF75BFD0546386820423BD1FFF743
:1018700055FD401B6428F7D9032007B0F0BD7168FF
:101880000140082908D10320C003716801400120EC
:101890000004814200D162E76268306801214F0490
:1018A000002A00D129E1052A00D11FE1012A00D038
:1018B0003CE1090408433FE13068059CE1680029E8
:1018C00037D0012108433060FFF728FD0546306816
:1018D000800700D568E7FFF721FD401B0228F6D9F5
:1018E000032007B0F0BD05988168306AB64F002923
:1018F00000D1DDE0052900D1C5E0012900D1C6E015
:10190000039988433062306A04218843C1E0012191
:1019100088437062FFF702FD0546706A800700D4B5
:101920004DE7FFF7FBFC401B0228F6D9032007B068
:10193000F0BD012188433060FFF7F0FC05463068B8
:10194000800700D437E7FFF7E9FC411B0320022999
:10195000F5D935E1042188437063706BF821884321
:1019600005998969C900014371630598007880066B
:101970000BD571680C2001400C294DD1706B800390
:1019800003D50598006A012822D10598446A002CE5
:101990001BD070680C21014008291CD1012C17D0E4
:1019A0000320C20370680240F16A059CA36A9A4250
:1019B0000ED10F221140236B994209D191040840A6
:1019C000E16A8842049800D0FAE0002007B0F0BD38
:1019D000049807B0F0BD01200206316804929143DB
:1019E00031604706FFF79AFC0546022C0AD13068A1
:1019F000384200D1C3E0FFF791FC411B03200229CC
:101A0000F5D9DDE030683842DFD0FFF787FC411BB5
:101A100003200229F6D9D3E071680140082905D1D5
:101A20000320C003716801408142A7D0706B059903
:101A3000096A002900D18FE001210A041043706374
:101A40004C04FFF76BFC0546706B20429DD1FFF7FD
:101A500065FC411B03200229F6D9B1E004210843AB
:101A60007063706B012188437063FFF757FC054674
:101A7000706B800700D478E7FFF750FC411B032010
:101A80000229F5D99CE0042108433062306A0399A9
:101A900008433062FFF742FC0546306A80071BD4DA
:101AA000FFF73CFC401BB842F7D9032007B0F0BD5C
:101AB000039988433062306A042188433062FFF71B
:101AC0002DFC0546306A800706D5FFF727FC411B31
:101AD0000320B942F6D973E002980028059C00D093
:101AE00070E6F06901998843F0616BE68A0410435F
:101AF00030600904306808431EE00A0490433060F7
:101B00008804316881433160FFF708FC0546059C75
:101B10003068384200D129E6FFF700FC411B032062
:101B20006429F5D94CE0C046001002400A049043F5
:101B300030608904306888433060FFF7EFFB05466A
:101B40003068384200D011E6FFF7E8FB401B6428FC
:101B5000F6D9032007B0F0BD01210A049043706359
:101B60004C04FFF7DBFB0546706B204200D10CE70D
:101B7000FFF7D4FB411B03200229F5D920E0F06ACE
:101B80000F218843059A116B0143F1627B20C0034A
:101B900071688143D06A0843916A0143716030687B
:101BA000049908433060FFF7B9FB044630683842B7
:101BB00000D00AE7FFF7B2FB011B03200229F5D989
:101BC00007B0F0BD0070004088130000401E010EF9
:101BD00001D0012070470749074A50600748036851
:101BE0000B400321890759180160002090600721EC
:101BF00011607047FFFFFF0010E000E020ED00E003
:101C000010B53C22825C012A01D1022010BD02469F
:101C10003C3202235370006843687024A3430C686D
:101C20001C43836844606A4CA04207DC0124A4077B
:101C3000A04209D0694CA04206D00AE0654CA042FF
:101C400002D0654CA04204D18024A34349681943C3
:101C50008160002010700121517010BD70B5002806
:101C600029D005463C356978002905D10021297025
:101C7000044600F06FF82046022169700268166879
:101C800001218C07A24205D0534B9A4202D0534BFC
:101C90009A4219D170239E43836833434C4EB2421B
:101CA00016DD274CA24208DC4B4CA24218D0494C0E
:101CB000A24215D042E0012070BD224CA2420FD0BA
:101CC000214CA2420CD039E03346414EB242E8DC0E
:101CD000A24205D0414CA24202D01C4CA2422DD1BE
:101CE00003242402A34304691C4380239C43836987
:101CF00023431360C368D36243689362144BD318C1
:101D00000A24E341072B06D80C469C40E1231C42E1
:101D100001D04069106351611069C00702D0106999
:101D200088431061A972A970E97029716971A9715C
:101D3000E971297269726970002070BD1C46D4E790
:101D4000FF430140004801400044014000200040A2
:101D500000D4FEBF81B000681F49884201D001B0A5
:101D600070470120C00205490A6802430A600968F9
:101D700001400091009801B07047C0461810024021
:101D80003D21415C01290FD101463D3102220A70FB
:101D900000680F49884209DC0121890788420BD07D
:101DA0000E49884208D00CE001207047094988425A
:101DB00002D00949884204D1816807220A40062AD4
:101DC00003D0016801220A43026000207047C04628
:101DD000FF2B014000400140002C01400004004066
:101DE000F0B53C22825C012A01D10220F0BD0246FE
:101DF0003C3202235370504E3346773B0468A06850
:101E00001840A0600D6800234F2D1FDC1F2D36DD0C
:101E1000202D38D0302D36D0402D00D087E0206ADC
:101E2000256A0126B5432562A569F026B543CE682B
:101E300036012E43A6610A25A84349680143216261
:101E4000A06847210143302081436AE06F2D26DDE1
:101E500001204703BD4257D00003854218461AD0DF
:101E6000702D64D1A06830404D688E68C9682E43DB
:101E7000090231430143A160A068772150E0002DA1
:101E800001D0102D53D1A06870218843054307204D
:101E90002843A0601846137001215170F0BD502DE9
:101EA0001BD0602D43D1256A1020C043266A06400E
:101EB00026620F263603A769B743CE6836033E4332
:101EC000A661A026B5434968090129432162A1689A
:101ED00067250D430540A56024E0206A256A012698
:101EE000B5432562A569F026B543CE6836012E4379
:101EF000A6610A25A843496801432162A0685721C9
:101F00000143202081430CE0A56835404E688F686E
:101F1000C9683743090239432943A1608003A16896
:101F20000143A1601846137001215170F0BD0120DA
:101F3000137001215170F0BDFF00FFFFB0B5002804
:101F40001DD00446C06F002805D1782000212154FF
:101F5000204600F02BF82420E06720680168012566
:101F6000A9430160606A002802D0204600F062F8B0
:101F7000204600F031F9002803D02846B0BD0120EA
:101F8000B0BD0920C00221684A6882434A6088685F
:101F90002A22904388600868012202430A60204692
:101FA00000F0B2F805462846B0BD000080B586B006
:101FB0000021059104910391029101910068D44A96
:101FC000904201D006B080BD0F488268012305937E
:101FD0005B041A43826082681A400092009A026889
:101FE0001A43026000681840009004910391022097
:101FF00002900C2001900920C006009901A9FFF76A
:10200000B1F806B080BDC04614100240FEE7FEE7FE
:102010007047704780B5FFF785F980BD704780B580
:102020000920C00601214902FFF76AF9411E484212
:10203000484180BDB0B5416A0A070CD4CA0714D123
:102040008A071CD44A0724D4CA062CD48A0634D45E
:102050004A063CD44CE00122D20303685C689443F6
:10206000426B22435A60CA07EAD001225204036835
:102070005C689443826A22435A608A07E2D501224F
:10208000120403685C689443C26A22435A604A0798
:10209000DAD50122920403685C689443026B224300
:1020A0005A60CA06D2D50122120303689C68944381
:1020B000826B22439A608A06CAD5012252030368C2
:1020C0009C689443C26B22439A604A0610D5012251
:1020D0001305026854689C43056C2C4354609D4270
:1020E00006D103235B0554689C43436C2343536030
:1020F000090607D50121C904026853688B43806C27
:1021000018435060B0BD0000F0B583B004460646E9
:1021100078360025F560FFF701F90346206801686D
:10212000090721D502952B48009001256905002259
:1021300020461F4600F0F8F8002812D0EFF3108078
:1021400085F3108821680A6880239A430A6080F327
:102150001088032020227C21029D6250357003B03C
:10216000F0BD20683B46029D0068400726D519480F
:1021700000900127B9050022204600F0D5F800287C
:102180001CD0EFF3108087F31088092149012268E1
:1021900013688B43136080F31088EFF3108087F38C
:1021A000108821688A68BA438A6080F31088032007
:1021B000202280216250357003B0F0BD2020E067FE
:1021C000B060256664212A4628466250357003B007
:1021D000F0BDC046FFFFFF01B0B5044600680168CE
:1021E000474A0A40A16823690B4365691D431543AB
:1021F000E1690D4305600322120343689343E268DB
:102200001A434260A269236A13430B2212028568B3
:1022100095431D43856000223A4B984206DC3C4BB7
:10222000984212D03B4B984216D00CE0364B984265
:1022300012D0364A904206D1374800688007000F16
:10224000364A125808E0102206E033480068800B36
:102250000C220240314882580125EB033048994254
:1022600010D1082A47D8C0467A44127952009744C0
:1022700004422442194242422300FFF71FFA002879
:102280001BD137E0082A36D87A4412795200974495
:10229000043225320E3232322400FFF70FFA0028C2
:1022A0001CD127E0FFF718FA002806D122E0FFF73B
:1022B00013FA002812D11DE01846400061684A0850
:1022C000101800F039FB0246103A16498A4212D221
:1022D00001400007400F08430AE0184661684A08B9
:1022E000101800F029FB014610390E4A914202D223
:1022F0002168C86000250020A066E0662846B0BDC1
:10230000F369FFEFFF4B0040004C004000380140F4
:10231000004400400048004030100240A82B000854
:1023200000127A00F0FF0000F0B585B01F46154698
:102330000E460368D9693140891B4A424A4100214F
:10234000954222D10A9C002C22D00391611C24D1F9
:10235000D9693140891B4A424A41954231D1D969F4
:102360003140891B4A424A4195422AD1D9693140BC
:10237000891B4A424A41954223D1D9693140891B80
:102380004A424A419542E3D01BE0084605B0F0BD01
:10239000FEF7C4FF032005B0F0BD402E049001D02D
:1023A000802E14D1FEF7BAFFC01BA0420CD80498AF
:1023B00000680168C0693040801B414241418D4244
:1023C000F0D0039805B0F0BD032005B0F0BD783023
:1023D000019001200090C002029006E0C8693040E0
:1023E000801B414241418D42EBD1FEF797FFC11B5B
:1023F0000320A1423ED8049909680A685207EDD526
:10240000CA69120738D4CA69029B1A42E6D0029AF6
:102410000A62EFF31082012181F3108809235B0126
:10242000049C246825689D43256082F31088EFF39F
:10243000108281F31088049B1B689C688C439C600D
:10244000049B82F310881A6E012A0BD1EFF31082DD
:1024500081F3108819680B681024A3430B60049B58
:1024600082F310882021019CA16000221A669A66DE
:102470002270E16005B0F0BD08250D62EFF3108118
:10248000009880F3108809225201049B1B681C6885
:1024900094431C6081F31088EFF3108180F310885F
:1024A000049A1268936883439360049B81F31088B5
:1024B000196E01290CD1EFF31081012282F31088EB
:1024C0001A6813681024A3431360049B81F31088D7
:1024D0002021019A91600021196699661170D560DA
:1024E00005B0F0BDF0B581B01C4615460E46074656
:1024F0000022FEF70AFF31480068416A426A521A18
:10250000012A0BD8426A521A012A07D8426A521A83
:10251000012A03D8426A521A022AEFD3012238460E
:102520003146FEF7F2FE25480068416A426A521AB7
:10253000092A0BD8426A521A092A07D8426A521A43
:10254000092A03D8426A521A0A2AEFD300223846CF
:102550003146FEF7DAFEFEF7E1FE0746194E284641
:102560002146FEF7CDFE002807D1FEF7D7FEC01B9F
:102570001E28F4D9304601B0F0BDEC480068406A2E
:102580000090FEF7CBFE074628462146FEF7B8FE30
:10259000012805D1FEF7C2FEC01B1E28F4D9E9E7C9
:1025A000E2480068406A0099401AFDF72BFF044991
:1025B000FDF726FE0646304601B0F0BDE8000020DB
:1025C00000006842000080BF10B50C4C2046FEF7AA
:1025D0006BFA64212046FEF7D7F9002805D00024C5
:1025E0000648FEF793FAA0B210BD0448FEF7F0F8D3
:1025F00004460248FEF78AFAA0B210BDA8000020E7
:102600009EB0FEF799FE11AC201D30252946FDF73E
:10261000F1FD01201990119500271A9710251795A3
:1026200016900C970B970A970997089707972046DB
:10263000FFF782F8002803D0EFF3108072B6FEE7B0
:10264000059510970F9703240E9407260D960DA855
:1026500001252946FEF780FF002803D0EFF3108004
:1026600072B6FEE7039409970220069006A8FEF7CB
:10267000CFFE002803D0EFF3108072B6FEE701967C
:10268000159714971397129711972E46E9049F48B0
:1026900002680A43026002680A4006920699A90588
:1026A00002680A43026002680A40069206996904B9
:1026B00002680A43026002680A4006920699A90469
:1026C00002680A43026000680840069006980920E4
:1026D000C506B1020291203128463A46FEF715FEA2
:1026E0008B4805993A46FEF710FE13972120000407
:1026F000129070031190874811AC2146FEF732FD0D
:102700001497139712962020119028462146FEF721
:1027100029FD13961297FF2002300490FF3011908C
:1027200028462146FEF71EFD039814901397129633
:1027300002981190009528462146FEF713FD139745
:1027400012972820119072482146FEF70BFD039D39
:10275000149513971296059811906D4821463446AA
:10276000FEF700FD6C4EB7852006290505225204B0
:1027700006236A4D35617361B761F7613262716238
:10278000B062354610352846FEF7D6FB002803D048
:10279000EFF3108072B6FEE761480C21614A0762D0
:1027A00047624B235B028CC0076047608160C76053
:1027B00007610C38FFF7C2FB002803D0EFF310804D
:1027C00072B6FEE75C20544E37543466B765042079
:1027D0005549049AC032B163F76337647764B464CF
:1027E000F0643765726538363046FDF7F5FF00282E
:1027F00003D0EFF3108072B6FEE7019813901197A3
:102800002403129411A93046FDF740FF002803D09D
:10281000EFF3108072B6FEE70596444844492F2234
:10282000444B036042608760C16007614761876114
:1028300014971397129707970697FFF70FFA002838
:1028400003D0EFF3108072B6FEE71194374811A958
:10285000FFF7C6FA002803D0EFF3108072B6FEE748
:10286000324C06A92046FFF7CBF9002803D0EFF33E
:10287000108072B6FEE72846FEF72BFC2046FFF7D5
:102880007FFA0598FDF7A4FE009E029F224DFFF7F8
:102890009BFE6880FFF7C3FB2870102120251C4C8D
:1028A000204622462B46FFF71DFEFDF759FD1A492B
:1028B00048606420FEF746FC08233046394622462D
:1028C000FFF710FEFDF74CFD134988602046049C7D
:1028D0002946114DFEF714FD687014480068406ADF
:1028E000E860FDF71DFE688800097D2804D30021FB
:1028F00020460A46FDF74AFE28780128C7D1601C09
:1029000000210A46FDF742FEC1E7C046141002400E
:1029100000040048000800487000002000640040E7
:10292000300100200044004000240140E800002065
:10293000FFFF0000002C014043088B421AD3002205
:1029400003098B4279D3030A8B425ED3030B8B427C
:1029500042D3030C8B4227D30902FF2212BA030C85
:102960008B4202D31212090203D0030B8B4233D3E2
:102970001AE0D3E0411A8041401C704703460B43E4
:1029800071D443088B42F5D3002203098B4254D300
:10299000030A8B4239D3030B8B421DD3030C8B42AA
:1029A00002D394466EE0090AC30B8B4201D3CB03DA
:1029B000C01A5241830B8B4201D38B03C01A524180
:1029C000430B8B4201D34B03C01A5241030B8B4282
:1029D00001D30B03C01A5241C30A8B4201D3CB026D
:1029E000C01A5241830A8B4201D38B02C01A524152
:1029F000430A8B4201D34B02C01A5241030A8B4255
:102A000001D30B02C01A5241CDD2C3098B4201D36C
:102A1000CB01C01A524183098B4201D38B01C01AEA
:102A2000524143098B4201D34B01C01A5241030961
:102A30008B4201D30B01C01A5241C3088B4201D310
:102A4000CB00C01A524183088B4201D38B00C01ABD
:102A5000524143088B4201D34B00C01A5241411AE4
:102A6000524110007047CA0F00D04942031000D3F2
:102A70004042534000229C4603098B422DD3030A57
:102A80008B4212D38901FC2212BA030A8B420CD367
:102A9000890192118B4208D3890192118B4204D390
:102AA000890137D0921100E08909C3098B4201D313
:102AB000CB01C01A524183098B4201D38B01C01A4A
:102AC000524143098B4201D34B01C01A52410309C1
:102AD0008B4201D30B01C01A5241C3088B4201D370
:102AE000CB00C01A524183088B4201D38B00C01A1D
:102AF0005241D9D243088B4201D34B00C01A5241F4
:102B0000411A00D201465241104663465B1000D381
:102B10004042704763465B1000D3404201B500213C
:102B2000004201D0C9430846C046C04602BD81826A
:102B3000838485868788898B8C8D8E8F91929395DF
:102B40009697999A9C9D9FA0A2A3A5A7A8AAACAE70
:102B5000B0B2B3B5B7B9BCBEC0C2C5C7C9CCCED17F
:102B6000D4D7D9DCDFE2E6E9ECF0F3F7FAFE0000B7
:102B7000000000000000010203040607080900002D
:102B800000000102030402030405060708090A0BFA
:102B90000C0D0E0F10100102030405060708090AA8
:102BA0000B0C0D0E0F1000000000000004000000D0
:102BB0000800000002000000D82B000800000020E0
:102BC000100000001C010008E82B00081000002085
:102BD000B00700003C0100080100000004000000F4
:082BE00000127A000000000061
:04000005080000C12E
:00000001FF
